{
  "contractName": "Todos",
  "abi": [
    {
      "anonymous": false,
      "inputs": [
        {
          "indexed": false,
          "internalType": "uint256",
          "name": "id",
          "type": "uint256"
        },
        {
          "indexed": false,
          "internalType": "bool",
          "name": "completed",
          "type": "bool"
        }
      ],
      "name": "TodoComplete",
      "type": "event"
    },
    {
      "anonymous": false,
      "inputs": [
        {
          "indexed": false,
          "internalType": "uint256",
          "name": "id",
          "type": "uint256"
        },
        {
          "indexed": false,
          "internalType": "string",
          "name": "content",
          "type": "string"
        },
        {
          "indexed": false,
          "internalType": "bool",
          "name": "completed",
          "type": "bool"
        },
        {
          "indexed": false,
          "internalType": "address",
          "name": "author",
          "type": "address"
        }
      ],
      "name": "TodoCreated",
      "type": "event"
    },
    {
      "anonymous": false,
      "inputs": [
        {
          "indexed": false,
          "internalType": "uint256",
          "name": "id",
          "type": "uint256"
        },
        {
          "indexed": false,
          "internalType": "string",
          "name": "content",
          "type": "string"
        },
        {
          "indexed": false,
          "internalType": "bool",
          "name": "completed",
          "type": "bool"
        }
      ],
      "name": "TodoEdited",
      "type": "event"
    },
    {
      "anonymous": false,
      "inputs": [],
      "name": "TodoRemove",
      "type": "event"
    },
    {
      "constant": true,
      "inputs": [],
      "name": "name",
      "outputs": [
        {
          "internalType": "string",
          "name": "",
          "type": "string"
        }
      ],
      "payable": false,
      "stateMutability": "view",
      "type": "function"
    },
    {
      "constant": true,
      "inputs": [
        {
          "internalType": "uint256",
          "name": "",
          "type": "uint256"
        }
      ],
      "name": "tasks",
      "outputs": [
        {
          "internalType": "uint256",
          "name": "id",
          "type": "uint256"
        },
        {
          "internalType": "string",
          "name": "content",
          "type": "string"
        },
        {
          "internalType": "bool",
          "name": "completed",
          "type": "bool"
        },
        {
          "internalType": "address",
          "name": "author",
          "type": "address"
        }
      ],
      "payable": false,
      "stateMutability": "view",
      "type": "function"
    },
    {
      "constant": true,
      "inputs": [],
      "name": "todosCount",
      "outputs": [
        {
          "internalType": "uint256",
          "name": "",
          "type": "uint256"
        }
      ],
      "payable": false,
      "stateMutability": "view",
      "type": "function"
    },
    {
      "constant": false,
      "inputs": [
        {
          "internalType": "string",
          "name": "_content",
          "type": "string"
        }
      ],
      "name": "createTodo",
      "outputs": [],
      "payable": false,
      "stateMutability": "nonpayable",
      "type": "function"
    },
    {
      "constant": false,
      "inputs": [
        {
          "internalType": "uint256",
          "name": "_id",
          "type": "uint256"
        }
      ],
      "name": "toggle",
      "outputs": [],
      "payable": false,
      "stateMutability": "nonpayable",
      "type": "function"
    },
    {
      "constant": false,
      "inputs": [
        {
          "internalType": "uint256",
          "name": "_id",
          "type": "uint256"
        },
        {
          "internalType": "string",
          "name": "_content",
          "type": "string"
        }
      ],
      "name": "editTask",
      "outputs": [],
      "payable": false,
      "stateMutability": "nonpayable",
      "type": "function"
    },
    {
      "constant": false,
      "inputs": [
        {
          "internalType": "uint256",
          "name": "_id",
          "type": "uint256"
        }
      ],
      "name": "deleteTodo",
      "outputs": [],
      "payable": false,
      "stateMutability": "nonpayable",
      "type": "function"
    }
  ],
  "bytecode": "0x60806040526040518060400160405280600881526020017f546f646f204170700000000000000000000000000000000000000000000000008152506000908051906020019061004f929190610067565b50600060015534801561006157600080fd5b5061010c565b828054600181600116156101000203166002900490600052602060002090601f016020900481019282601f106100a857805160ff19168380011785556100d6565b828001600101855582156100d6579182015b828111156100d55782518255916020019190600101906100ba565b5b5090506100e391906100e7565b5090565b61010991905b808211156101055760008160009055506001016100ed565b5090565b90565b610d188061011b6000396000f3fe608060405234801561001057600080fd5b506004361061007d5760003560e01c80638d9776721161005b5780638d97767214610161578063cb7bd9951461024d578063d4474c9214610312578063e34f1221146103305761007d565b806306fdde03146100825780636e3c673814610105578063751ef75314610133575b600080fd5b61008a6103eb565b6040518080602001828103825283818151815260200191508051906020019080838360005b838110156100ca5780820151818401526020810190506100af565b50505050905090810190601f1680156100f75780820380516001836020036101000a031916815260200191505b509250505060405180910390f35b6101316004803603602081101561011b57600080fd5b8101908080359060200190929190505050610489565b005b61015f6004803603602081101561014957600080fd5b8101908080359060200190929190505050610534565b005b61018d6004803603602081101561017757600080fd5b8101908080359060200190929190505050610667565b6040518085815260200180602001841515151581526020018373ffffffffffffffffffffffffffffffffffffffff1673ffffffffffffffffffffffffffffffffffffffff168152602001828103825285818151815260200191508051906020019080838360005b8381101561020f5780820151818401526020810190506101f4565b50505050905090810190601f16801561023c5780820380516001836020036101000a031916815260200191505b509550505050505060405180910390f35b6103106004803603604081101561026357600080fd5b81019080803590602001909291908035906020019064010000000081111561028a57600080fd5b82018360208201111561029c57600080fd5b803590602001918460018302840111640100000000831117156102be57600080fd5b91908080601f016020809104026020016040519081016040528093929190818152602001838380828437600081840152601f19601f82011690508083019250505050505050919291929050505061075c565b005b61031a610905565b6040518082815260200191505060405180910390f35b6103e96004803603602081101561034657600080fd5b810190808035906020019064010000000081111561036357600080fd5b82018360208201111561037557600080fd5b8035906020019184600183028401116401000000008311171561039757600080fd5b91908080601f016020809104026020016040519081016040528093929190818152602001838380828437600081840152601f19601f82011690508083019250505050505050919291929050505061090b565b005b60008054600181600116156101000203166002900480601f0160208091040260200160405190810160405280929190818152602001828054600181600116156101000203166002900480156104815780601f1061045657610100808354040283529160200191610481565b820191906000526020600020905b81548152906001019060200180831161046457829003601f168201915b505050505081565b600260008281526020019081526020016000206000808201600090556001820160006104b59190610b50565b6002820160006101000a81549060ff02191690556002820160016101000a81549073ffffffffffffffffffffffffffffffffffffffff02191690555050600160008154809291906001900391905055507f1d40e11fbdcedcdca91bf34238b1a7c63469e4054b576c7ca57f410fd6f7d3b160405160405180910390a150565b6000600154116105ac576040517f08c379a00000000000000000000000000000000000000000000000000000000081526004018080602001828103825260128152602001807f6964206d7573742062652072657175697265000000000000000000000000000081525060200191505060405180910390fd5b6002600082815260200190815260200160002060020160009054906101000a900460ff16156002600083815260200190815260200160002060020160006101000a81548160ff0219169083151502179055507fa86347bb5718105f49bf818ee51b83f4ebfb509b451b094d4530108ea64b3b10816002600084815260200190815260200160002060020160009054906101000a900460ff1660405180838152602001821515151581526020019250505060405180910390a150565b6002602052806000526040600020600091509050806000015490806001018054600181600116156101000203166002900480601f0160208091040260200160405190810160405280929190818152602001828054600181600116156101000203166002900480156107195780601f106106ee57610100808354040283529160200191610719565b820191906000526020600020905b8154815290600101906020018083116106fc57829003601f168201915b5050505050908060020160009054906101000a900460ff16908060020160019054906101000a900473ffffffffffffffffffffffffffffffffffffffff16905084565b6000600154116107d4576040517f08c379a00000000000000000000000000000000000000000000000000000000081526004018080602001828103825260128152602001807f6964206d7573742062652072657175697265000000000000000000000000000081525060200191505060405180910390fd5b806002600084815260200190815260200160002060010190805190602001906107fe929190610b98565b5060006002600084815260200190815260200160002060020160006101000a81548160ff0219169083151502179055507fb1c0a5e447395102243f0b56ef50b3d3a518804181cd0953e573ee08712f6b7682826002600086815260200190815260200160002060020160009054906101000a900460ff16604051808481526020018060200183151515158152602001828103825284818151815260200191508051906020019080838360005b838110156108c55780820151818401526020810190506108aa565b50505050905090810190601f1680156108f25780820380516001836020036101000a031916815260200191505b5094505050505060405180910390a15050565b60015481565b6000815111801561091d575060288151105b610972576040517f08c379a0000000000000000000000000000000000000000000000000000000008152600401808060200182810382526026815260200180610cbe6026913960400191505060405180910390fd5b600160008154809291906001019190505550604051806080016040528060015481526020018281526020016000151581526020013373ffffffffffffffffffffffffffffffffffffffff168152506002600060015481526020019081526020016000206000820151816000015560208201518160010190805190602001906109fb929190610c18565b5060408201518160020160006101000a81548160ff02191690831515021790555060608201518160020160016101000a81548173ffffffffffffffffffffffffffffffffffffffff021916908373ffffffffffffffffffffffffffffffffffffffff1602179055509050507fa89b5720fff6d45f6b1f07c5086d9c53d1df9cb51c67195924899e2176cfa747600154826000336040518085815260200180602001841515151581526020018373ffffffffffffffffffffffffffffffffffffffff1673ffffffffffffffffffffffffffffffffffffffff168152602001828103825285818151815260200191508051906020019080838360005b83811015610b10578082015181840152602081019050610af5565b50505050905090810190601f168015610b3d5780820380516001836020036101000a031916815260200191505b509550505050505060405180910390a150565b50805460018160011615610100020316600290046000825580601f10610b765750610b95565b601f016020900490600052602060002090810190610b949190610c98565b5b50565b828054600181600116156101000203166002900490600052602060002090601f016020900481019282601f10610bd957805160ff1916838001178555610c07565b82800160010185558215610c07579182015b82811115610c06578251825591602001919060010190610beb565b5b509050610c149190610c98565b5090565b828054600181600116156101000203166002900490600052602060002090601f016020900481019282601f10610c5957805160ff1916838001178555610c87565b82800160010185558215610c87579182015b82811115610c86578251825591602001919060010190610c6b565b5b509050610c949190610c98565b5090565b610cba91905b80821115610cb6576000816000905550600101610c9e565b5090565b9056fe636f6e74656e74206973207265717569726520627574206c6573732034302073796d626f6c73a265627a7a72315820f3e88201e18540e90bff68132b52304cdfec183a9c3f6a477b94388d7a0c965764736f6c63430005100032",
  "source": "pragma solidity >=0.4.22 <0.8.0;\n\ncontract Todos {\n  string public name = \"Todo App\";\n  uint public todosCount = 0;\n  mapping(uint => Todo) public tasks;\n\n  struct Todo {\n    uint id;\n    string content;\n    bool completed;\n    address author;\n  }\n\n  event TodoCreated (\n    uint id,\n    string content,\n    bool completed,\n    address author\n  );\n\n  event TodoComplete(\n    uint id,\n    bool completed\n  );\n\n  event TodoEdited (\n    uint id,\n    string content,\n    bool completed\n  );\n\n  event TodoRemove();\n\n  function createTodo(string memory _content) public {\n    require(bytes(_content).length > 0 && bytes(_content).length < 40, \"content is require but less 40 symbols\");\n    todosCount ++;\n    tasks[todosCount] = Todo(todosCount, _content, false, msg.sender);\n    emit TodoCreated(todosCount, _content, false, msg.sender);\n  }\n\n  function toggle(uint _id) public {\n    require(todosCount > 0, \"id must be require\"); \n    tasks[_id].completed = !tasks[_id].completed;\n    emit TodoComplete(_id, tasks[_id].completed);\n  }\n\n  function editTask(uint _id, string memory _content) public {\n    require(todosCount > 0, \"id must be require\");\n    tasks[_id].content = _content;\n    tasks[_id].completed = false;\n    emit TodoEdited(_id, _content, tasks[_id].completed);\n  }\n\n  function deleteTodo(uint _id) public {\n    delete tasks[_id];\n    todosCount --;\n\n    emit TodoRemove();\n  }\n\n}\n",
  "sourcePath": "/Users/kirillnovoseletskii/Desktop/dapp-test-1/src/contracts/Todos.sol",
  "compiler": {
    "name": "solc",
    "version": "0.5.16+commit.9c3226ce.Emscripten.clang"
  },
  "schemaVersion": "3.2.3",
  "updatedAt": "2021-09-14T09:55:42.225Z",
  "networkType": "ethereum",
  "devdoc": {
    "methods": {}
  },
  "userdoc": {
    "methods": {}
  }
}